{
  "abi": [
    {
      "inputs": [],
      "stateMutability": "nonpayable",
      "type": "constructor"
    },
    {
      "anonymous": false,
      "inputs": [
        {
          "indexed": true,
          "internalType": "address",
          "name": "_address",
          "type": "address"
        }
      ],
      "name": "AddressDeregistered",
      "type": "event"
    },
    {
      "anonymous": false,
      "inputs": [
        {
          "indexed": true,
          "internalType": "address",
          "name": "_address",
          "type": "address"
        }
      ],
      "name": "AddressRegistered",
      "type": "event"
    },
    {
      "anonymous": false,
      "inputs": [
        {
          "indexed": true,
          "internalType": "address",
          "name": "owner",
          "type": "address"
        },
        {
          "indexed": true,
          "internalType": "address",
          "name": "approved",
          "type": "address"
        },
        {
          "indexed": true,
          "internalType": "uint256",
          "name": "tokenId",
          "type": "uint256"
        }
      ],
      "name": "Approval",
      "type": "event"
    },
    {
      "anonymous": false,
      "inputs": [
        {
          "indexed": true,
          "internalType": "address",
          "name": "owner",
          "type": "address"
        },
        {
          "indexed": true,
          "internalType": "address",
          "name": "operator",
          "type": "address"
        },
        {
          "indexed": false,
          "internalType": "bool",
          "name": "approved",
          "type": "bool"
        }
      ],
      "name": "ApprovalForAll",
      "type": "event"
    },
    {
      "anonymous": false,
      "inputs": [
        {
          "indexed": true,
          "internalType": "uint256",
          "name": "_tokenId",
          "type": "uint256"
        },
        {
          "indexed": true,
          "internalType": "address",
          "name": "_source",
          "type": "address"
        },
        {
          "indexed": true,
          "internalType": "address",
          "name": "_target",
          "type": "address"
        },
        {
          "indexed": false,
          "internalType": "uint8",
          "name": "_score",
          "type": "uint8"
        },
        {
          "indexed": false,
          "internalType": "string",
          "name": "_uri",
          "type": "string"
        }
      ],
      "name": "BlendMinted",
      "type": "event"
    },
    {
      "anonymous": false,
      "inputs": [
        {
          "indexed": true,
          "internalType": "address",
          "name": "from",
          "type": "address"
        },
        {
          "indexed": true,
          "internalType": "address",
          "name": "to",
          "type": "address"
        },
        {
          "indexed": true,
          "internalType": "uint256",
          "name": "tokenId",
          "type": "uint256"
        }
      ],
      "name": "Transfer",
      "type": "event"
    },
    {
      "inputs": [
        {
          "internalType": "address",
          "name": "to",
          "type": "address"
        },
        {
          "internalType": "uint256",
          "name": "tokenId",
          "type": "uint256"
        }
      ],
      "name": "approve",
      "outputs": [],
      "stateMutability": "nonpayable",
      "type": "function"
    },
    {
      "inputs": [
        {
          "internalType": "address",
          "name": "owner",
          "type": "address"
        }
      ],
      "name": "balanceOf",
      "outputs": [
        {
          "internalType": "uint256",
          "name": "",
          "type": "uint256"
        }
      ],
      "stateMutability": "view",
      "type": "function"
    },
    {
      "inputs": [],
      "name": "deregister",
      "outputs": [],
      "stateMutability": "nonpayable",
      "type": "function"
    },
    {
      "inputs": [
        {
          "internalType": "uint256",
          "name": "tokenId",
          "type": "uint256"
        }
      ],
      "name": "getApproved",
      "outputs": [
        {
          "internalType": "address",
          "name": "",
          "type": "address"
        }
      ],
      "stateMutability": "view",
      "type": "function"
    },
    {
      "inputs": [
        {
          "internalType": "uint256",
          "name": "_tokenId",
          "type": "uint256"
        }
      ],
      "name": "getMetadata",
      "outputs": [
        {
          "internalType": "address",
          "name": "_source",
          "type": "address"
        },
        {
          "internalType": "address",
          "name": "_target",
          "type": "address"
        },
        {
          "internalType": "uint8",
          "name": "_score",
          "type": "uint8"
        },
        {
          "internalType": "string",
          "name": "_uri",
          "type": "string"
        }
      ],
      "stateMutability": "view",
      "type": "function"
    },
    {
      "inputs": [
        {
          "internalType": "address",
          "name": "owner",
          "type": "address"
        },
        {
          "internalType": "address",
          "name": "operator",
          "type": "address"
        }
      ],
      "name": "isApprovedForAll",
      "outputs": [
        {
          "internalType": "bool",
          "name": "",
          "type": "bool"
        }
      ],
      "stateMutability": "view",
      "type": "function"
    },
    {
      "inputs": [
        {
          "internalType": "address",
          "name": "userAddress",
          "type": "address"
        }
      ],
      "name": "isRegistered",
      "outputs": [
        {
          "internalType": "bool",
          "name": "",
          "type": "bool"
        }
      ],
      "stateMutability": "view",
      "type": "function"
    },
    {
      "inputs": [
        {
          "internalType": "address",
          "name": "_target",
          "type": "address"
        },
        {
          "internalType": "uint8",
          "name": "_score",
          "type": "uint8"
        },
        {
          "internalType": "string",
          "name": "_uri",
          "type": "string"
        }
      ],
      "name": "mint",
      "outputs": [
        {
          "internalType": "uint256",
          "name": "",
          "type": "uint256"
        }
      ],
      "stateMutability": "nonpayable",
      "type": "function"
    },
    {
      "inputs": [],
      "name": "name",
      "outputs": [
        {
          "internalType": "string",
          "name": "",
          "type": "string"
        }
      ],
      "stateMutability": "view",
      "type": "function"
    },
    {
      "inputs": [
        {
          "internalType": "uint256",
          "name": "tokenId",
          "type": "uint256"
        }
      ],
      "name": "ownerOf",
      "outputs": [
        {
          "internalType": "address",
          "name": "",
          "type": "address"
        }
      ],
      "stateMutability": "view",
      "type": "function"
    },
    {
      "inputs": [],
      "name": "register",
      "outputs": [],
      "stateMutability": "nonpayable",
      "type": "function"
    },
    {
      "inputs": [
        {
          "internalType": "address",
          "name": "from",
          "type": "address"
        },
        {
          "internalType": "address",
          "name": "to",
          "type": "address"
        },
        {
          "internalType": "uint256",
          "name": "tokenId",
          "type": "uint256"
        }
      ],
      "name": "safeTransferFrom",
      "outputs": [],
      "stateMutability": "nonpayable",
      "type": "function"
    },
    {
      "inputs": [
        {
          "internalType": "address",
          "name": "from",
          "type": "address"
        },
        {
          "internalType": "address",
          "name": "to",
          "type": "address"
        },
        {
          "internalType": "uint256",
          "name": "tokenId",
          "type": "uint256"
        },
        {
          "internalType": "bytes",
          "name": "data",
          "type": "bytes"
        }
      ],
      "name": "safeTransferFrom",
      "outputs": [],
      "stateMutability": "nonpayable",
      "type": "function"
    },
    {
      "inputs": [
        {
          "internalType": "address",
          "name": "operator",
          "type": "address"
        },
        {
          "internalType": "bool",
          "name": "approved",
          "type": "bool"
        }
      ],
      "name": "setApprovalForAll",
      "outputs": [],
      "stateMutability": "nonpayable",
      "type": "function"
    },
    {
      "inputs": [
        {
          "internalType": "bytes4",
          "name": "interfaceId",
          "type": "bytes4"
        }
      ],
      "name": "supportsInterface",
      "outputs": [
        {
          "internalType": "bool",
          "name": "",
          "type": "bool"
        }
      ],
      "stateMutability": "view",
      "type": "function"
    },
    {
      "inputs": [],
      "name": "symbol",
      "outputs": [
        {
          "internalType": "string",
          "name": "",
          "type": "string"
        }
      ],
      "stateMutability": "view",
      "type": "function"
    },
    {
      "inputs": [
        {
          "internalType": "uint256",
          "name": "tokenId",
          "type": "uint256"
        }
      ],
      "name": "tokenURI",
      "outputs": [
        {
          "internalType": "string",
          "name": "",
          "type": "string"
        }
      ],
      "stateMutability": "view",
      "type": "function"
    },
    {
      "inputs": [
        {
          "internalType": "address",
          "name": "from",
          "type": "address"
        },
        {
          "internalType": "address",
          "name": "to",
          "type": "address"
        },
        {
          "internalType": "uint256",
          "name": "tokenId",
          "type": "uint256"
        }
      ],
      "name": "transferFrom",
      "outputs": [],
      "stateMutability": "nonpayable",
      "type": "function"
    }
  ],
  "bytecode": {
    "object": "0x60806040523480156200001157600080fd5b506040518060400160405280600881526020016713999d109b195b9960c21b815250604051806040016040528060048152602001631093139160e21b81525081600090816200006191906200013e565b5060016200007082826200013e565b5050506200008a60066200009060201b62000b5f1760201c565b6200020a565b80546001019055565b634e487b7160e01b600052604160045260246000fd5b600181811c90821680620000c457607f821691505b602082108103620000e557634e487b7160e01b600052602260045260246000fd5b50919050565b601f8211156200013957600081815260208120601f850160051c81016020861015620001145750805b601f850160051c820191505b81811015620001355782815560010162000120565b5050505b505050565b81516001600160401b038111156200015a576200015a62000099565b62000172816200016b8454620000af565b84620000eb565b602080601f831160018114620001aa5760008415620001915750858301515b600019600386901b1c1916600185901b17855562000135565b600085815260208120601f198616915b82811015620001db57888601518255948401946001909101908401620001ba565b5085821015620001fa5787850151600019600388901b60f8161c191681555b5050505050600190811b01905550565b6118df806200021a6000396000f3fe608060405234801561001057600080fd5b50600436106101165760003560e01c806395d89b41116100a2578063b88d4fde11610071578063b88d4fde14610240578063c3c5a54714610253578063c87b56dd14610266578063e985e9c514610279578063fc1cc1d1146102b557600080fd5b806395d89b41146101fa578063a22cb46514610202578063a574cea414610215578063aff5edb11461023857600080fd5b80631aa3a008116100e95780631aa3a0081461019857806323b872dd146101a057806342842e0e146101b35780636352211e146101c657806370a08231146101d957600080fd5b806301ffc9a71461011b57806306fdde0314610143578063081812fc14610158578063095ea7b314610183575b600080fd5b61012e6101293660046112ae565b6102c8565b60405190151581526020015b60405180910390f35b61014b61031a565b60405161013a9190611318565b61016b61016636600461132b565b6103ac565b6040516001600160a01b03909116815260200161013a565b610196610191366004611360565b6103d3565b005b6101966104ed565b6101966101ae36600461138a565b610585565b6101966101c136600461138a565b6105b6565b61016b6101d436600461132b565b6105d1565b6101ec6101e73660046113c6565b610631565b60405190815260200161013a565b61014b6106b7565b6101966102103660046113e1565b6106c6565b61022861022336600461132b565b6106d5565b60405161013a949392919061141d565b6101966107e9565b61019661024e3660046114e8565b610876565b61012e6102613660046113c6565b6108ae565b61014b61027436600461132b565b6108cc565b61012e610287366004611564565b6001600160a01b03918216600090815260056020908152604080832093909416825291909152205460ff1690565b6101ec6102c3366004611597565b610978565b60006001600160e01b031982166380ac58cd60e01b14806102f957506001600160e01b03198216635b5e139f60e01b145b8061031457506301ffc9a760e01b6001600160e01b03198316145b92915050565b60606000805461032990611611565b80601f016020809104026020016040519081016040528092919081815260200182805461035590611611565b80156103a25780601f10610377576101008083540402835291602001916103a2565b820191906000526020600020905b81548152906001019060200180831161038557829003601f168201915b5050505050905090565b60006103b782610b68565b506000908152600460205260409020546001600160a01b031690565b60006103de826105d1565b9050806001600160a01b0316836001600160a01b0316036104505760405162461bcd60e51b815260206004820152602160248201527f4552433732313a20617070726f76616c20746f2063757272656e74206f776e656044820152603960f91b60648201526084015b60405180910390fd5b336001600160a01b038216148061046c575061046c8133610287565b6104de5760405162461bcd60e51b815260206004820152603d60248201527f4552433732313a20617070726f76652063616c6c6572206973206e6f7420746f60448201527f6b656e206f776e6572206f7220617070726f76656420666f7220616c6c0000006064820152608401610447565b6104e88383610bca565b505050565b6104f6336108ae565b156105435760405162461bcd60e51b815260206004820152601a60248201527f6164647265737320616c726561647920726567697374657265640000000000006044820152606401610447565b33600081815260076020526040808220805460ff19166001179055517fb2899cb26a6f22b6b94e4cc8de24dc97bcf3cc73fc0dfaac71decef29fac7c539190a2565b61058f3382610c38565b6105ab5760405162461bcd60e51b81526004016104479061164b565b6104e8838383610cb6565b6104e883838360405180602001604052806000815250610876565b6000818152600260205260408120546001600160a01b0316806103145760405162461bcd60e51b8152602060048201526018602482015277115490cdcc8c4e881a5b9d985b1a59081d1bdad95b88125160421b6044820152606401610447565b60006001600160a01b03821661069b5760405162461bcd60e51b815260206004820152602960248201527f4552433732313a2061646472657373207a65726f206973206e6f7420612076616044820152683634b21037bbb732b960b91b6064820152608401610447565b506001600160a01b031660009081526003602052604090205490565b60606001805461032990611611565b6106d1338383610e1a565b5050565b600080600060606106e585610b68565b6000858152600860209081526040808320815160808101835281546001600160a01b039081168252600183015490811694820194909452600160a01b90930460ff169183019190915260028101805460608401919061074390611611565b80601f016020809104026020016040519081016040528092919081815260200182805461076f90611611565b80156107bc5780601f10610791576101008083540402835291602001916107bc565b820191906000526020600020905b81548152906001019060200180831161079f57829003601f168201915b505050919092525050815160208301516040840151606090940151919a9099509297509550909350505050565b6107f2336108ae565b6108375760405162461bcd60e51b81526020600482015260166024820152751859191c995cdcc81b9bdd081c9959da5cdd195c995960521b6044820152606401610447565b33600081815260076020526040808220805460ff19169055517fe4519776825d8a4617d2ccb206c8ff2de7c8451c6c7b02367b882de96fb0493c9190a2565b6108803383610c38565b61089c5760405162461bcd60e51b81526004016104479061164b565b6108a884848484610ee8565b50505050565b6001600160a01b031660009081526007602052604090205460ff1690565b60606108d782610b68565b600082815260086020526040902060020180546108f390611611565b80601f016020809104026020016040519081016040528092919081815260200182805461091f90611611565b801561096c5780601f106109415761010080835404028352916020019161096c565b820191906000526020600020905b81548152906001019060200180831161094f57829003601f168201915b50505050509050919050565b60006001600160a01b03841633036109e35760405162461bcd60e51b815260206004820152602860248201527f736f7572636520616e642074617267657420616464726573732063616e6e6f746044820152672062652073616d6560c01b6064820152608401610447565b6109ec336108ae565b610a385760405162461bcd60e51b815260206004820181905260248201527f736f757263652061646472657373206973206e6f7420726567697374657265646044820152606401610447565b610a41846108ae565b610a8d5760405162461bcd60e51b815260206004820181905260248201527f7461726765742061646472657373206973206e6f7420726567697374657265646044820152606401610447565b60648360ff161115610ae15760405162461bcd60e51b815260206004820181905260248201527f73636f72652063616e6e6f742062652067726561746572207468616e203130306044820152606401610447565b6000610aec60065490565b9050610afb8133878787610f1b565b846001600160a01b0316336001600160a01b0316827fe5f6de72ffa0ec431fdbc59d3cd3182fdaf7d428784f6a7dcec157dc9f55ccf78787604051610b41929190611698565b60405180910390a4610b57600680546001019055565b949350505050565b80546001019055565b6000818152600260205260409020546001600160a01b0316610bc75760405162461bcd60e51b8152602060048201526018602482015277115490cdcc8c4e881a5b9d985b1a59081d1bdad95b88125160421b6044820152606401610447565b50565b600081815260046020526040902080546001600160a01b0319166001600160a01b0384169081179091558190610bff826105d1565b6001600160a01b03167f8c5be1e5ebec7d5bd14f71427d1e84f3dd0314c0f7b2291e5b200ac8c7c3b92560405160405180910390a45050565b600080610c44836105d1565b9050806001600160a01b0316846001600160a01b03161480610c8b57506001600160a01b0380821660009081526005602090815260408083209388168352929052205460ff165b80610b575750836001600160a01b0316610ca4846103ac565b6001600160a01b031614949350505050565b826001600160a01b0316610cc9826105d1565b6001600160a01b031614610cef5760405162461bcd60e51b8152600401610447906116b4565b6001600160a01b038216610d515760405162461bcd60e51b8152602060048201526024808201527f4552433732313a207472616e7366657220746f20746865207a65726f206164646044820152637265737360e01b6064820152608401610447565b826001600160a01b0316610d64826105d1565b6001600160a01b031614610d8a5760405162461bcd60e51b8152600401610447906116b4565b600081815260046020908152604080832080546001600160a01b03199081169091556001600160a01b0387811680865260038552838620805460001901905590871680865283862080546001019055868652600290945282852080549092168417909155905184937fddf252ad1be2c89b69c2b068fc378daa952ba7f163c4a11628f55a4df523b3ef91a4505050565b816001600160a01b0316836001600160a01b031603610e7b5760405162461bcd60e51b815260206004820152601960248201527f4552433732313a20617070726f766520746f2063616c6c6572000000000000006044820152606401610447565b6001600160a01b03838116600081815260056020908152604080832094871680845294825291829020805460ff191686151590811790915591519182527f17307eab39ab6107e8899845ad3d59bd9653f200f220920489ca2b5937696c31910160405180910390a3505050565b610ef3848484610cb6565b610eff84848484610fc4565b6108a85760405162461bcd60e51b8152600401610447906116f9565b610f2584866110c5565b604080516080810182526001600160a01b038087168252858116602080840191825260ff8088168587019081526060860188815260008d8152600890945296909220855181549086166001600160a01b031990911617815592516001840180549351909216600160a01b026001600160a81b03199093169416939093171790915591519091906002820190610fba9082611799565b5050505050505050565b60006001600160a01b0384163b156110ba57604051630a85bd0160e11b81526001600160a01b0385169063150b7a0290611008903390899088908890600401611859565b6020604051808303816000875af1925050508015611043575060408051601f3d908101601f191682019092526110409181019061188c565b60015b6110a0573d808015611071576040519150601f19603f3d011682016040523d82523d6000602084013e611076565b606091505b5080516000036110985760405162461bcd60e51b8152600401610447906116f9565b805181602001fd5b6001600160e01b031916630a85bd0160e11b149050610b57565b506001949350505050565b6106d18282604051806020016040528060008152506110e4838361110d565b6110f16000848484610fc4565b6104e85760405162461bcd60e51b8152600401610447906116f9565b6001600160a01b0382166111635760405162461bcd60e51b815260206004820181905260248201527f4552433732313a206d696e7420746f20746865207a65726f20616464726573736044820152606401610447565b6000818152600260205260409020546001600160a01b0316156111c85760405162461bcd60e51b815260206004820152601c60248201527f4552433732313a20746f6b656e20616c7265616479206d696e746564000000006044820152606401610447565b6000818152600260205260409020546001600160a01b03161561122d5760405162461bcd60e51b815260206004820152601c60248201527f4552433732313a20746f6b656e20616c7265616479206d696e746564000000006044820152606401610447565b6001600160a01b038216600081815260036020908152604080832080546001019055848352600290915280822080546001600160a01b0319168417905551839291907fddf252ad1be2c89b69c2b068fc378daa952ba7f163c4a11628f55a4df523b3ef908290a45050565b6001600160e01b031981168114610bc757600080fd5b6000602082840312156112c057600080fd5b81356112cb81611298565b9392505050565b6000815180845260005b818110156112f8576020818501810151868301820152016112dc565b506000602082860101526020601f19601f83011685010191505092915050565b6020815260006112cb60208301846112d2565b60006020828403121561133d57600080fd5b5035919050565b80356001600160a01b038116811461135b57600080fd5b919050565b6000806040838503121561137357600080fd5b61137c83611344565b946020939093013593505050565b60008060006060848603121561139f57600080fd5b6113a884611344565b92506113b660208501611344565b9150604084013590509250925092565b6000602082840312156113d857600080fd5b6112cb82611344565b600080604083850312156113f457600080fd5b6113fd83611344565b91506020830135801515811461141257600080fd5b809150509250929050565b6001600160a01b0385811682528416602082015260ff83166040820152608060608201819052600090611452908301846112d2565b9695505050505050565b634e487b7160e01b600052604160045260246000fd5b600067ffffffffffffffff8084111561148d5761148d61145c565b604051601f8501601f19908116603f011681019082821181831017156114b5576114b561145c565b816040528093508581528686860111156114ce57600080fd5b858560208301376000602087830101525050509392505050565b600080600080608085870312156114fe57600080fd5b61150785611344565b935061151560208601611344565b925060408501359150606085013567ffffffffffffffff81111561153857600080fd5b8501601f8101871361154957600080fd5b61155887823560208401611472565b91505092959194509250565b6000806040838503121561157757600080fd5b61158083611344565b915061158e60208401611344565b90509250929050565b6000806000606084860312156115ac57600080fd5b6115b584611344565b9250602084013560ff811681146115cb57600080fd5b9150604084013567ffffffffffffffff8111156115e757600080fd5b8401601f810186136115f857600080fd5b61160786823560208401611472565b9150509250925092565b600181811c9082168061162557607f821691505b60208210810361164557634e487b7160e01b600052602260045260246000fd5b50919050565b6020808252602d908201527f4552433732313a2063616c6c6572206973206e6f7420746f6b656e206f776e6560408201526c1c881bdc88185c1c1c9bdd9959609a1b606082015260800190565b60ff83168152604060208201526000610b5760408301846112d2565b60208082526025908201527f4552433732313a207472616e736665722066726f6d20696e636f72726563742060408201526437bbb732b960d91b606082015260800190565b60208082526032908201527f4552433732313a207472616e7366657220746f206e6f6e20455243373231526560408201527131b2b4bb32b91034b6b83632b6b2b73a32b960711b606082015260800190565b601f8211156104e857600081815260208120601f850160051c810160208610156117725750805b601f850160051c820191505b818110156117915782815560010161177e565b505050505050565b815167ffffffffffffffff8111156117b3576117b361145c565b6117c7816117c18454611611565b8461174b565b602080601f8311600181146117fc57600084156117e45750858301515b600019600386901b1c1916600185901b178555611791565b600085815260208120601f198616915b8281101561182b5788860151825594840194600190910190840161180c565b50858210156118495787850151600019600388901b60f8161c191681555b5050505050600190811b01905550565b6001600160a01b0385811682528416602082015260408101839052608060608201819052600090611452908301846112d2565b60006020828403121561189e57600080fd5b81516112cb8161129856fea2646970667358221220472479d82794ae7a7c752abfb04957a7d2578e4fb8cbf162ef27982454caee1464736f6c63430008110033",
    "linkReferences": {}
  },
  "methodIdentifiers": {
    "approve(address,uint256)": "095ea7b3",
    "balanceOf(address)": "70a08231",
    "deregister()": "aff5edb1",
    "getApproved(uint256)": "081812fc",
    "getMetadata(uint256)": "a574cea4",
    "isApprovedForAll(address,address)": "e985e9c5",
    "isRegistered(address)": "c3c5a547",
    "mint(address,uint8,string)": "fc1cc1d1",
    "name()": "06fdde03",
    "ownerOf(uint256)": "6352211e",
    "register()": "1aa3a008",
    "safeTransferFrom(address,address,uint256)": "42842e0e",
    "safeTransferFrom(address,address,uint256,bytes)": "b88d4fde",
    "setApprovalForAll(address,bool)": "a22cb465",
    "supportsInterface(bytes4)": "01ffc9a7",
    "symbol()": "95d89b41",
    "tokenURI(uint256)": "c87b56dd",
    "transferFrom(address,address,uint256)": "23b872dd"
  },
  "id": 19
}